{
  "_format": "hh-sol-artifact-1",
  "contractName": "WavePortal",
  "sourceName": "contracts/WavePortal.sol",
  "abi": [
    {
      "inputs": [],
      "stateMutability": "nonpayable",
      "type": "constructor"
    },
    {
      "inputs": [],
      "name": "getTotalWaves",
      "outputs": [
        {
          "internalType": "uint256",
          "name": "",
          "type": "uint256"
        }
      ],
      "stateMutability": "view",
      "type": "function"
    },
    {
      "inputs": [],
      "name": "wave",
      "outputs": [],
      "stateMutability": "nonpayable",
      "type": "function"
    }
  ],
  "bytecode": "0x608060405234801561001057600080fd5b506100596040518060400160405280601581526020017f4920616d206120736d61727420636f6e7472616374000000000000000000000081525061005e60201b6100c91760201c565b6101e1565b6100fa81604051602401610072919061015f565b6040516020818303038152906040527f41304fac000000000000000000000000000000000000000000000000000000007bffffffffffffffffffffffffffffffffffffffffffffffffffffffff19166020820180517bffffffffffffffffffffffffffffffffffffffffffffffffffffffff83818316178352505050506100fd60201b60201c565b50565b60008151905060006a636f6e736f6c652e6c6f679050602083016000808483855afa5050505050565b600061013182610181565b61013b818561018c565b935061014b81856020860161019d565b610154816101d0565b840191505092915050565b600060208201905081810360008301526101798184610126565b905092915050565b600081519050919050565b600082825260208201905092915050565b60005b838110156101bb5780820151818401526020810190506101a0565b838111156101ca576000848401525b50505050565b6000601f19601f8301169050919050565b610401806101f06000396000f3fe608060405234801561001057600080fd5b50600436106100365760003560e01c80636fe15b441461003b5780639a2cdc0814610045575b600080fd5b610043610063565b005b61004d61007e565b60405161005a91906102c1565b60405180910390f35b600160008082825461007591906102f8565b92505081905550565b60006100c16040518060400160405280601781526020017f5765206861766520256420746f74616c20776176657321000000000000000000815250600054610162565b600054905090565b61015f816040516024016100dd919061026f565b6040516020818303038152906040527f41304fac000000000000000000000000000000000000000000000000000000007bffffffffffffffffffffffffffffffffffffffffffffffffffffffff19166020820180517bffffffffffffffffffffffffffffffffffffffffffffffffffffffff83818316178352505050506101fe565b50565b6101fa8282604051602401610178929190610291565b6040516020818303038152906040527f9710a9d0000000000000000000000000000000000000000000000000000000007bffffffffffffffffffffffffffffffffffffffffffffffffffffffff19166020820180517bffffffffffffffffffffffffffffffffffffffffffffffffffffffff83818316178352505050506101fe565b5050565b60008151905060006a636f6e736f6c652e6c6f679050602083016000808483855afa5050505050565b6000610232826102dc565b61023c81856102e7565b935061024c818560208601610358565b610255816103ba565b840191505092915050565b6102698161034e565b82525050565b600060208201905081810360008301526102898184610227565b905092915050565b600060408201905081810360008301526102ab8185610227565b90506102ba6020830184610260565b9392505050565b60006020820190506102d66000830184610260565b92915050565b600081519050919050565b600082825260208201905092915050565b60006103038261034e565b915061030e8361034e565b9250827fffffffffffffffffffffffffffffffffffffffffffffffffffffffffffffffff038211156103435761034261038b565b5b828201905092915050565b6000819050919050565b60005b8381101561037657808201518184015260208101905061035b565b83811115610385576000848401525b50505050565b7f4e487b7100000000000000000000000000000000000000000000000000000000600052601160045260246000fd5b6000601f19601f830116905091905056fea2646970667358221220b9c7424eb1640ec778cd5d42772dc627946a07176635633c1f6a9236bef5300b64736f6c63430008040033",
  "linkReferences": {},
  "deployedLinkReferences": {}
}